:020000040000FA
:100000000C9463000C948B000C948B000C949B0656
:100010000C949B060C949B060C948B000C948B0008
:100020000C948B000C948B000C948B000C94130795
:100030000C948B000C948B000C948B000C948B0014
:100040000C9451060C948B000C948B000C948B0038
:100050000C948B000C948B000C948B000C948B00F4
:100060000C94CF070C948B000000000024002700A4
:100070002A0000000008000201000003040700003D
:1000800000000000000000000000230026002900FE
:1000900000000000250028002B00040404040404D0
:1000A0000404020202020202030303030303010227
:1000B00004081020408001020408102001020408F6
:1000C0001020EA08D70B11241FBECFEFD8E0DEBF07
:1000D000CDBF12E0A0E0B1E0E4E9FDE102C005908F
:1000E0000D92A830B107D9F723E0A8E0B2E001C033
:1000F0001D92A435B207E1F710E0C2E6D0E004C0DB
:100100002197FE010E94C50CC136D107C9F70E9494
:100110009D090C94BD0E0C9400008F929F92AF929B
:10012000BF92FF920F931F93CF93DF93F090220320
:100130002BE02F1508F44CC02091240308E512E0B1
:10014000021B110927FD1395000F111F000F111F2E
:1001500020912303C8E8D0E0C21BD10927FDD39525
:10016000CC0FDD1FCC0FDD1F4E010D2E000CAA0899
:10017000BB089801012E000C440B550B28193909B6
:100180004A095B09DC010E94210C24EB30E040E0CD
:1001900050E00E94F70B820E931EA41EB51E8C1613
:1001A0009D062CF0E801801691060CF4E4012297DC
:1001B000CC0FDD1F2FB7F8948F2D90E0FC01EE0FD0
:1001C000FF1FE80FF91FE950FD4FD283C1832FBFF6
:1001D000DF91CF911F910F91FF90BF90AF909F90B3
:1001E0008F900895AF92BF92CF92DF92EF92FF92DD
:1001F0000F931F93CF93DF936C017B018B01040F4F
:10020000151FEB015E01AE18BF08C017D10759F0EA
:100210006991D601ED91FC910190F081E02DC6012C
:100220000995892B79F7C501DF91CF911F910F9126
:10023000FF90EF90DF90CF90BF90AF900895833004
:1002400081F028F4813099F08230A9F00895873048
:10025000A9F08830C9F08430B1F4809180008F7D9E
:1002600003C0809180008F7780938000089584B5CB
:100270008F7784BD089584B58F7DFBCF8091B000CA
:100280008F778093B00008958091B0008F7DF9CF73
:10029000CF93DF93282F30E0F901EE58FF4F849180
:1002A000F901E255FF4FD491F901E656FF4FC49191
:1002B000CC23A1F081110E941F01EC2FF0E0EE0F82
:1002C000FF1FEA57FF4FA591B491EC91ED2381E018
:1002D00090E009F480E0DF91CF91089580E090E014
:1002E000FACF1F93CF93DF93282F30E0F901EE5818
:1002F000FF4F8491F901E255FF4FD491F901E65681
:10030000FF4FC491CC23A9F0162F81110E941F0129
:10031000EC2FF0E0EE0FFF1FE057FF4FA591B491D7
:100320008FB7F894EC91111108C0D095DE23DC93BF
:100330008FBFDF91CF911F910895DE2BF8CFCF9320
:10034000DF9390E0FC01E255FF4F249186569F4FCA
:10035000FC0184918823D1F090E0880F991FFC0163
:10036000E859FF4FA591B491FC01E057FF4FC591AB
:10037000D49161110EC09FB7F8948C91E22FE09553
:100380008E238C932881E223E8839FBFDF91CF9156
:1003900008958FB7F894EC91E22BEC938FBFF6CFD2
:1003A0003FB7F8948091E3029091E402A091E502B6
:1003B000B091E60226B5A89B05C02F3F19F0019623
:1003C000A11DB11D3FBFBA2FA92F982F8827BC01AF
:1003D000CD01620F711D811D911D42E0660F771FD7
:1003E000881F991F4A95D1F708958F929F92AF92D7
:1003F000BF92CF92DF92EF92FF924B015C010E947D
:10040000D0016B017C010E94D0016C197D098E091D
:100410009F09683E734081059105A8F321E0821A87
:100420009108A108B10888EEC80E83E0D81EE11C2F
:10043000F11C81149104A104B10429F7FF90EF90FD
:10044000DF90CF90BF90AF909F908F9008952091B4
:10045000E9023091EA022817390771F49091E70216
:100460008091E802981741F0E091E702F0E0E2564F
:10047000FD4F808190E008958FEF9FEF08950895DC
:10048000EF92FF920F931F93CF93DF93DC015C9663
:10049000ED90FC905D97E114F10479F481E090E037
:1004A00013969C938E93129790E080E0DF91CF910A
:1004B0001F910F91FF90EF9008955196ED91FC914F
:1004C000529750968C915097982F90950FB75E96B3
:1004D0002C915E97122F127021FD6095F894208167
:1004E000112319F1282B2083E7012197F1F728E048
:1004F000462F50E0308160FF1AC0382B3083E7016F
:100500002197F1F7BA0175956795215089F7112365
:1005100081F08081892380830FBF5C968D919C91AF
:100520000197F1F781E090E0C1CF2923DCCF392397
:10053000E5CF9081892BEFCF2091E9023091EA023B
:100540002817390771F48091E8022091E70290E0C2
:10055000805C9F4F821B910960E470E00E949D0CBB
:10056000089590E080E008952091E9023091EA0238
:1005700028173907B9F49091E7028091E80298179B
:1005800089F0E091E702F0E0E256FD4F8081209192
:10059000E70230E02F5F3F4F2F7333272093E702AE
:1005A00090E008958FEF9FEF089508951F93CF93E4
:1005B000DF93C1E0C0930902882399F1D091B8007C
:1005C0001091BA008091BC008A7B8093BC0060E0EF
:1005D00082E10E94710160E083E10E94710110924A
:1005E0007302C093720210924D0261E082E10E9498
:1005F000710161E083E10E9471018091B9008E7FF9
:100600008093B9008091B9008D7F8093B90088E410
:100610008093B80085E48093BC001093BA00D09317
:10062000B800DF91CF911F91089520912A02260FE3
:100630003327331F21323105ECF420917302FC0182
:1006400090E080E0243069F082E00895A0912A02D1
:100650002191AC01465F5D4FA40FB52FB11D2C93C6
:100660000196861798F380912A02680F60932A02F8
:1006700080E0089581E008958FEF9FEF08958FEF58
:100680009FEF08958091080290E0919581959109DE
:100690000895CF92DF92EF92FF920F931F93CF9323
:1006A000DF937C01CB018A0120917902222389F01A
:1006B000EB016B01C40ED51ECC15DD0569F0699107
:1006C000D701ED91FC910190F081E02DC7010995D2
:1006D000F3CF642F0E941503C801DF91CF911F91C2
:1006E0000F91FF90EF90DF90CF900895CF93DF931D
:1006F0001F92CDB7DEB76983209179022223F9F0EA
:1007000020919C02203258F021E030E0FC0133833C
:10071000228390E080E00F90DF91CF910895809147
:100720007A02E82FF0E0E558FD4F998190838F5FC2
:1007300080937A0280939C0281E090E0ECCF61E0AC
:10074000CE0101960E941503F7CFCF92DF92EF9270
:10075000FF920F931F93CF93DF93FC01C48121E09D
:1007600020937902C0939B0210927A0210929C020D
:100770008385682B8BEE92E00E947603D0919C02D9
:10078000D13208F092C00E94D0016B017C018091AF
:100790007302811165C082E08093730281E08093CF
:1007A00072028FEF8093710210927002D0936F02E9
:1007B000ABE7B2E0EFE4F2E080E0D81385C010923E
:1007C0004E0280914E02CC0FC82BC0934E028091F6
:1007D0004D02813009F07CC010924D020E94D00180
:1007E0006B017C0180914E028093BB008091750269
:1007F00090917602A0917702B0917802892B8A2B92
:100800008B2B99F00E94D001009175021091760215
:1008100020917702309178026C197D098E099F0929
:100820000617170728073907E0F18091BC0083FD00
:10083000D9CF85EC8093BC000E94D0016B017C0174
:1008400080917302823009F445C0809171028F3F1C
:1008500061F180917102803241F18091710225C075
:100860008091750290917602A0917702B091780202
:10087000892B8A2B8B2B09F48ACF0E94D0010091FF
:1008800075021091760220917702309178026C19EE
:100890007D098E099F09061717072807390708F0F1
:1008A00076CF809174020E94D60210927A02109242
:1008B0009C0210927902DF91CF911F910F91FF90CE
:1008C000EF90DF90CF9008959D9191938F5F75CFBA
:1008D00085EEB0CF8091750290917602A09177025B
:1008E000B0917802892B8A2B8B2B09F4A9CF0E9417
:1008F000D00100917502109176022091770230911B
:1009000078026C197D098E099F09061717072807B9
:10091000390708F095CFC5CF90E080E008950F9398
:100920001F93CF938C01C62F0E94A5036C2F646088
:10093000C8010E94A5036C2F6B7FC8010E94A5030C
:1009400083EC90E00197F1F7CF911F910F910895FB
:100950000F931F93CF93DF938C01D62FC42F607F0B
:10096000642B0E948F0480E1D89FB00111246C2B6E
:10097000C801DF91CF911F910F910C948F0440E03B
:1009800061E085E293E00E94A8048BE39FE1019778
:10099000F1F7089541E00E94A80481E090E00895F5
:1009A0000F931F93CF93DF93EC0188819981009778
:1009B00059F02A813B812617370730F081E0DF911B
:1009C000CF911F910F9108958B016F5F7F4F0E9410
:1009D000F00D009759F0998388831B830A832C813B
:1009E0003D81232B59F7FC011082E8CF80E0E7CF4F
:1009F000CF93DF93EC0188819981009711F00E94D9
:100A0000670D198218821D821C821B821A82DF9157
:100A1000CF910895FC0180819181009711F00C9491
:100A2000670D0895FB0101900020E9F73197AF01B0
:100A3000461B570BDC01ED91FC910280F381E02D08
:100A40000994CF93DF93FC014481558160817181CA
:100A500081E393E00E94F200EC0166E371E081E340
:100A600093E00E9412058C0F9D1FDF91CF91089596
:100A7000EF92FF920F931F93CF93DF93EC017B01D3
:100A8000198218821B821A821D821C82FB0101902E
:100A90000020E9F731978F01061B170BB8010E9460
:100AA000D004811109C0CE01DF91CF911F910F9128
:100AB000FF90EF900C94F8041D830C83B70188819C
:100AC0009981DF91CF911F910F91FF90EF900C943E
:100AD000B60ECF92DF92EF92FF920F931F93CF93B8
:100AE000DF9300D000D000D0CDB7DEB77C0169E342
:100AF00071E081E393E00E94120566E371E081E317
:100B000093E00E94120564E670E080E090E00E94AD
:100B1000F5016CE371E081E393E00E94120566E366
:100B200071E081E393E00E94120564E670E080E0EA
:100B300090E00E94F50166E471E0CE0101960E940A
:100B40003805C0901C03D0901D03C114D10409F4D2
:100B50005EC0009120031091210301151105B9F029
:100B60008D819E81080F191FB801CE0101960E9448
:100B7000D004882309F44BC029813A818D819E815C
:100B8000B601820F931F0E94B60E1E830D830D8146
:100B90001E810F5F1F4FB801CE0101960E94D00445
:100BA00081113AC0CE0101960E94F804CE0101964F
:100BB0000E942105CE0101960E940A0564E670E0BC
:100BC00080E090E00E94F501C7010E94210564E6E3
:100BD00070E080E090E00E94F5016AE181E393E03B
:100BE0000E94400264E670E080E090E00E94F5011F
:100BF00026960FB6F894DEBF0FBECDBFDF91CF9122
:100C00001F910F91FF90EF90DF90CF900895CE014C
:100C100001960E94F804BBCF29813A818D819E8183
:100C20006EE471E0820F931F0E94B60E1E830D8347
:100C3000BDCF85ED8093BC008091750290917602C6
:100C4000A0917702B09178020796A11DB11D23E013
:100C5000B695A795979587952A95D1F72091BC00D1
:100C600024FD03C0109273020895409175025091C3
:100C700076026091770270917802452B462B472BC4
:100C800069F30097A105B10541F025E32A95F1F735
:100C900000000197A109B109E1CF809174020C9481
:100CA000D6021F920F920FB60F9211242F933F93EB
:100CB0008F939F93AF93BF938091DF029091E00257
:100CC000A091E102B091E2023091DE0223E0230F15
:100CD0002D3758F50196A11DB11D2093DE0280939A
:100CE000DF029093E002A093E102B093E2028091D0
:100CF000E3029091E402A091E502B091E602019630
:100D0000A11DB11D8093E3029093E402A093E5023C
:100D1000B093E602BF91AF919F918F913F912F9138
:100D20000F900FBE0F901F90189526E8230F029684
:100D3000A11DB11DD2CF1F920F920FB60F92112499
:100D40002F933F934F935F936F937F938F939F93D3
:100D5000AF93BF93EF93FF93E091E902F091EA0222
:100D6000309749F0A685B7858585968D91FF14C08B
:100D70009C918923A1F4FF91EF91BF91AF919F9135
:100D80008F917F916F915F914F913F912F910F9034
:100D90000FBE0F901F9018959C91892361F7A3892E
:100DA000B4899C918589809589238C9386899789BC
:100DB0000197F1F7608D718DA685B785558538E06F
:100DC00020E0CB010197F1F7822F90E09595879570
:100DD000282F4C91452309F02068315091F7868DDA
:100DE00081FD20958091E80290E001968F7399270C
:100DF0003091E702381799F0A091E802B0E0A256CE
:100E0000BD4F2C938093E802828D938D0197F1F76B
:100E1000A389B4898C919589892B8C93ACCF868DCD
:100E20008160868FF1CF1F920F920FB60F9211241F
:100E30002F933F934F935F936F937F938F939F93E2
:100E4000AF93BF93CF93DF93EF93FF9380919D0276
:100E5000C0911B03D0E087FF24C010928500109240
:100E6000840080919D028F5F80939D0280919D02FE
:100E7000082E000C990B8C179D0724F480919D027D
:100E80008C30C4F180918400909185000496803468
:100E90009C4908F47AC08091840090918500049662
:100EA00076C080919D02082E000C990B8C179D072F
:100EB000C4F6E0919D028E2FEE0F990BFC01EE0F10
:100EC000FF1FE80FF91FE950FD4F808186FFC9CF52
:100ED000E0919D028E2FEE0F990BFC01EE0FFF1F8C
:100EE000E80FF91FE950FD4F808160E08F730E9489
:100EF0007101B7CF2091840030918500E0919D026F
:100F00008E2FEE0F990BFC01EE0FFF1FE80FF91F5C
:100F1000E950FD4F81819281820F931F9093890048
:100F200080938800E0919D028E2FEE0F990BFC01BB
:100F3000EE0FFF1FE80FF91FE950FD4F808186FF7C
:100F400011C0E0919D028E2FEE0F990BFC01EE0F68
:100F5000FF1FE80FF91FE950FD4F808161E08F739B
:100F60000E947101FF91EF91DF91CF91BF91AF91FD
:100F70009F918F917F916F915F914F913F912F91B1
:100F80000F900FBE0F901F90189580E49CE99093EE
:100F90008900809388008FEF80939D02E3CF1F929A
:100FA0000F920FB60F9211242F933F934F935F939D
:100FB0006F937F938F939F93AF93BF93EF93FF9321
:100FC0008091B900887F803609F44AC0F0F58832F4
:100FD00009F4A5C018F5803109F499C0B8F4882344
:100FE00009F4F5C0883009F492C0FF91EF91BF91E8
:100FF000AF919F918F917F916F915F914F913F91B1
:101000002F910F900FBE0F901F901895883109F403
:1010100086C0803251F78093710214C0803409F485
:101020009BC040F48033B9F38833F9F680937102A2
:1010300085ECAEC0803509F483C0883509F494C0CE
:10104000883499F60E941906D0CF883909F48AC0ED
:1010500038F5883729F050F4883611F0803729F6B2
:1010600083E08093730210924C0255C0883809F4D3
:1010700079C0803919F0803809F0B7CF80914C02DF
:10108000803208F06FC0E0914C0281E08E0F8093B7
:101090004C028091BB00F0E0E45DFD4F80833BC0DB
:1010A000803B39F0D0F4803A09F477C0883A09F0EF
:1010B0009CCF84E08093730210922B0210922A023C
:1010C000F0E0E0E0099580912A0281110FC081E0F3
:1010D00080932A0210920A0209C0803C09F4A8CF2A
:1010E000883C09F4A5CF883B09F07FCFE0912B0223
:1010F00081E08E0F80932B02F0E0E65FFD4F808150
:101100008093BB0090912B0280912A0229C080918C
:101110004E028093BB0085EC8093BC0066CF90911B
:10112000700280916F02981758F5E091700281E08B
:101130008E0F80937002F0E0E15BFD4F8081E9CF7C
:10114000E091700281E08E0F809370028091BB006D
:10115000F0E0E15BFD4F80839091700280916F021F
:101160009817C8F285E8D8CFE091700281E08E0F21
:10117000809370028091BB00F0E0E15BFD4F8083C3
:101180008091720281115ECF81E080934D0284EAEA
:101190008093BC001092730228CF85EC8093BC0032
:1011A0001092730280914C02803230F4E0914C0234
:1011B000F0E0E45DFD4F108260914C0270E08CE243
:1011C00092E0F0E0E0E0099510924C020ECF109210
:1011D000710238CF1092EE021092ED0288EE93E089
:1011E000A0E0B0E08093EF029093F002A093F102B0
:1011F000B093F2022AE031E03093EC022093EB024C
:101200001092340310923303809335039093360386
:10121000A0933703B093380388E291E090933203B0
:1012200080933103109248031092470310924A03AF
:101230001092490310924C0310924B0310924E03EC
:1012400010924D0360914F036E7F6D7F60934F034B
:101250006695617081E068278BE00E94710161E012
:101260008BE00E949F01E9EBF0E0E491E093410301
:10127000E5EAF0E0E491F0E0EE0FFF1FE057FF4FEA
:1012800085919491909343038093420360E08CE0B6
:101290000E949F0180914F0381FD04C061E08CE0BA
:1012A0000E9471018CE080933D03EAEBF0E0E49151
:1012B000E0933E03E6EAF0E0E491F0E0EE0FFF1F7A
:1012C000EA57FF4F859194919093400380933F0399
:1012D00010922803109227038CE191E0909326034B
:1012E0008093250387E28093290380E180932E0376
:1012F00082E080932F031092300380911B038C3087
:10130000C0F491E0980F90931B038093220390E028
:10131000FC01EE0FFF1FE80FF91FE950FD4F88EBAE
:101320009BE09283818360E571E08CE193E00C9413
:1013300038058FEF80932203F6CFCF93DF9300D051
:1013400000D000D0CDB7DEB7789484B5826084BD7C
:1013500084B5816084BD85B5826085BD85B58160B9
:1013600085BD80916E00816080936E001092810037
:1013700080918100826080938100809181008160F2
:1013800080938100809180008160809380008091B3
:10139000B10084608093B1008091B000816080933F
:1013A000B00080917A00846080937A0080917A0006
:1013B000826080937A0080917A00816080937A00C5
:1013C00080917A00806880937A001092C10060E07A
:1013D0008DE00E949F0160E08EE00E949F0161E02D
:1013E00088E00E949F0161E08AE00E949F01809155
:1013F0002A03886080932A0312E0F12EF0922D03D5
:1014000062E370E080E090E00E94F50160913003BB
:1014100085E293E00E94A50368EE73E080E090E02F
:101420000E94F50160E385E293E00E948F040BE4E3
:1014300016E4C8010197F1F760E385E293E00E94AA
:101440008F04C8010197F1F760E385E293E00E9401
:101450008F0483E592E00197F1F760E285E293E083
:101460000E948F0460912A03606240E085E293E06D
:101470000E94A80484E080932B0340E06CE085E2A6
:1014800093E00E94A8040E94BF04F0922C0340E065
:1014900066E085E293E00E94A80440E062E085E215
:1014A00093E00E94A8048BE39FE10197F1F76EE5BA
:1014B00071E085E293E00E941205809122038C3056
:1014C00008F051C061E089E00E949F0180912203F1
:1014D000282F30E0F901EE0FFF1FE20FF31FE95054
:1014E000FD4F9081907C996090831092230310921D
:1014F00024032CE0622F0E94910C829FB0011124E2
:1015000030E020E0AB01420F531FFA01EE0FFF1F46
:10151000E40FF51FE950FD4F908196FD16C02F5F37
:101520003F4F2C30310571F781110FC010928000B0
:1015300082E0809381001092850010928400B19A1D
:1015400080916F00826080936F00E09122038E2F64
:1015500090E0FC01EE0FFF1FE80FF91FE950FD4F6F
:1015600080818064808390E080E00E948D0068EC40
:1015700070E080E090E00E94F5010E94BF0461E805
:1015800071E085E293E00E94120568EC70E080E073
:1015900090E00E94F50110924C0310924B031092C0
:1015A0004A031092490310924803109247038DE9B1
:1015B00091E090934E0380934D0390913D039631BB
:1015C00008F047C02DEB30E03093480320934703E9
:1015D0002BE931E030934A03209349032CE231E0B8
:1015E00030934C0320934B032091680084E09830A3
:1015F00048F031E09E3008F430E081E001C0880F0F
:101600003A95EAF7822B809368002DE630E0983017
:1016100050F02BE630E09E3030F02CE630E0963192
:1016200010F030E020E03093450320934403292F4D
:1016300030E0983008F06EC081E001C0880F9A95C4
:10164000EAF78093460380914D0390914E030197F2
:10165000F1F780914B0390914C03892B49F1E09174
:10166000E902F091EA0223E0E133F20709F1309751
:1016700039F0A389B4899C918589809589238C93BD
:1016800080914F038E7F80934F031092E802109257
:10169000E70281E393E09093EA028093E902E0910C
:1016A0004403F0914503808190914603892B808308
:1016B00065E771E0CE0101960E943805CE010196E2
:1016C0000E946905CE0101960E940A0500E010E023
:1016D0008DE00E9448017C018EE00E944801EA945E
:1016E000EF2829F1019709F457C00E94BF0469EF60
:1016F00071E085E293E00E94120560E088E00E94BC
:10170000710160E08AE00E94710190E080E00E9437
:101710008D0035C09E3040F42850310981E001C071
:10172000880F2A95EAF78DCF2E503109F7CF0E9406
:10173000BF046FE871E085E293E00E9412056EE954
:1017400071E0CE0101960E943805CE0101960E94FB
:101750006905CE0101960E940A0561E088E00E94B9
:10176000710161E08AE00E9471018AE590E00E94C7
:101770008D0068EC70E080E090E00E94F50168EC7C
:1017800070E080E090E00E94F5010115110509F478
:101790009FCF0E9400009CCF0E94BF0465EC71E0C7
:1017A00085E293E00E94120563ED71E0CACF8CE1FF
:1017B00093E00E940A0588E291E0909332038093BF
:1017C00031038091E9029091EA028153934071F4D0
:1017D000E0914403F0914503908180914603809508
:1017E000892380831092EA021092E9020895052E5F
:1017F00097FB1EF400940E940E0C57FD07D00E9428
:10180000600C07FC03D04EF40C940E0C50954095E0
:10181000309521953F4F4F4F5F4F0895909580959C
:10182000709561957F4F8F4F9F4F08950E94820C56
:10183000A59F900DB49F900DA49F800D911D112424
:101840000895B7FF0C94160C0E94160C821B930B84
:1018500008952F923F924F925F926F927F928F9254
:101860009F92AF92BF92CF92DF92EF92FF920F932F
:101870001F93CF93DF93CDB7DEB7CA1BDB0B0FB639
:10188000F894DEBF0FBECDBF09942A8839884888F6
:101890005F846E847D848C849B84AA84B984C8848C
:1018A000DF80EE80FD800C811B81AA81B981CE0F83
:1018B000D11D0FB6F894DEBF0FBECDBFED01089568
:1018C000A1E21A2EAA1BBB1BFD010DC0AA1FBB1F44
:1018D000EE1FFF1FA217B307E407F50720F0A21BB6
:1018E000B30BE40BF50B661F771F881F991F1A9423
:1018F00069F760957095809590959B01AC01BD014D
:10190000CF010895A29FB001B39FC001A39F700DA6
:10191000811D1124911DB29F700D811D1124911DF7
:101920000895991B79E004C0991F961708F0961B3B
:10193000881F7A95C9F78095089597FB072E16F4AE
:10194000009407D077FD09D00E94B10C07FC05D0A8
:101950003EF4909581959F4F0895709561957F4FC6
:101960000895AA1BBB1B51E107C0AA1FBB1FA617E6
:10197000B70710F0A61BB70B881F991F5A95A9F738
:1019800080959095BC01CD010895EE0FFF1F059045
:10199000F491E02D09940F931F93CF93DF9382303E
:1019A000910510F482E090E0E0915203F09153032E
:1019B00030E020E0B0E0A0E0309799F42115310547
:1019C00009F44AC0281B390B24303105D8F58A8127
:1019D0009B816115710589F1FB0193838283FE016F
:1019E00011C0408151810281138148175907E0F0ED
:1019F0004817590799F4109761F012960C931297B3
:101A000013961C933296CF01DF91CF911F910F91C6
:101A100008950093520310935303F4CF2115310519
:101A200051F04217530738F0A901DB019A01BD01BB
:101A3000DF01F801C1CFEF01F9CF909353038093F9
:101A40005203CDCFFE01E20FF31F819391932250F9
:101A5000310939832883D7CF209150033091510326
:101A6000232B41F420910201309103013093510363
:101A7000209350032091000130910101211531057F
:101A800041F42DB73EB74091040150910501241B4C
:101A9000350BE0915003F0915103E217F307A0F4E6
:101AA0002E1B3F0B2817390778F0AC014E5F5F4FB4
:101AB0002417350748F04E0F5F1F50935103409392
:101AC0005003819391939FCFF0E0E0E09CCFCF93C0
:101AD000DF930097E9F0FC01329713821282A09104
:101AE0005203B0915303ED0130E020E01097A1F4D0
:101AF00020813181820F931F209150033091510337
:101B00002817390709F061C0F0935103E09350039F
:101B1000DF91CF910895EA01CE17DF07E8F54A81FA
:101B20005B819E0141155105B1F7E901FB83EA8311
:101B300049915991C40FD51FEC17FD0761F48081BD
:101B400091810296840F951FE90199838883828190
:101B500093819B838A83F0E0E0E012968D919C91C3
:101B600013970097B9F52D913C911197CD010296ED
:101B7000820F931F2091500330915103281739078A
:101B800039F6309751F51092530310925203B093E7
:101B90005103A0935003BCCFD383C28340815181B2
:101BA000840F951FC817D90761F44E5F5F4F888176
:101BB0009981480F591F518340838A819B81938368
:101BC00082832115310509F0B0CFF0935303E093E0
:101BD00052039ECFFD01DC01C0CF13821282D7CF0A
:101BE000B0E0A0E0E6EFFDE00C942B0C8C01009738
:101BF00051F4CB010E94CB0C8C01C801CDB7DEB7EC
:101C0000E0E10C94470CFC01E60FF71F9C01225009
:101C10003109E217F30708F49DC0D901CD91DC9199
:101C20001197C617D70798F0C530D10530F3CE010C
:101C300004978617970708F3C61BD70B2297C19303
:101C4000D1936D937C93CF010E94670DD6CF5B013A
:101C5000AC1ABD0A4C018C0E9D1EA0915203B0918E
:101C60005303512C412CF12CE12C109731F580912C
:101C70005003909151038815990509F05CC04616F0
:101C8000570608F058C0809100019091010100971B
:101C900041F48DB79EB74091040150910501841B1A
:101CA000950BE817F90708F055C0F0935103E0933E
:101CB0005003F90171836083A0CF8D919C9111979E
:101CC00012966C90129713967C901397A815B905ED
:101CD00059F56C0142E0C40ED11CCA14DB0420F19A
:101CE000AC014A195B09DA011296159780F06282FD
:101CF000738251834083D9016D937C93E114F10485
:101D000071F0D7011396FC93EE93129776CF22963B
:101D10008C0F9D1FF90191838083F301EFCFF09326
:101D20005303E093520369CF4816590608F42C0177
:101D30007D01D3019ACFCB010E94CB0C7C0100978F
:101D400049F0AE01B8010E94AD0EC8010E94670DB6
:101D5000870153CF10E000E050CFFB01DC0102C04F
:101D600001900D9241505040D8F70895FB01DC01DD
:101D700001900D920020E1F7089510E0C2E6D0E056
:101D800004C0FE010E94C50C2196C336D107C9F7D5
:101D9000F894FFCF00005403800000000000760399
:101DA00049038C043F0242033F033C030000000050
:101DB000CA04F2008C04D502000000004002F200C8
:101DC0008C043F029C02B40227020D0A0041540019
:101DD00041542B434D47463D310041542B434D4721
:101DE000533D22002B323534374F343533373034BE
:101DF000340053797374656D20496E697469616C40
:101E0000697A696E672E2E2E0046697265205361CD
:101E1000666574792053797374656D2052656164C9
:101E20007921004669726520446574656374656450
:101E30002100414C4552543A204669726520646540
:101E400074656374656420696E2074686520646FCE
:101E5000726D69746F7279210047617320446574F3
:101E600065637465642100414C4552543A204761D2
:101E70007320646574656374656420696E2074689A
:101E80006520646F726D69746F7279210053797384
:0C1E900074656D204E6F726D616C000077
:107E0000112484B714BE81FFF0D085E080938100F7
:107E100082E08093C00088E18093C10086E0809377
:107E2000C20080E18093C4008EE0C9D0259A86E02C
:107E300020E33CEF91E0309385002093840096BBD3
:107E4000B09BFECF1D9AA8958150A9F7CC24DD24C4
:107E500088248394B5E0AB2EA1E19A2EF3E0BF2EE7
:107E6000A2D0813461F49FD0082FAFD0023811F036
:107E7000013811F484E001C083E08DD089C08234E0
:107E800011F484E103C0853419F485E0A6D080C0E4
:107E9000853579F488D0E82EFF2485D0082F10E0AE
:107EA000102F00270E291F29000F111F8ED06801E7
:107EB0006FC0863521F484E090D080E0DECF843638
:107EC00009F040C070D06FD0082F6DD080E0C81688
:107ED00080E7D80618F4F601B7BEE895C0E0D1E017
:107EE00062D089930C17E1F7F0E0CF16F0E7DF06D8
:107EF00018F0F601B7BEE89568D007B600FCFDCFD4
:107F0000A601A0E0B1E02C9130E011968C91119780
:107F100090E0982F8827822B932B1296FA010C0160
:107F200087BEE89511244E5F5F4FF1E0A038BF0790
:107F300051F7F601A7BEE89507B600FCFDCF97BE46
:107F4000E89526C08437B1F42ED02DD0F82E2BD052
:107F50003CD0F601EF2C8F010F5F1F4F84911BD097
:107F6000EA94F801C1F70894C11CD11CFA94CF0C13
:107F7000D11C0EC0853739F428D08EE10CD085E9AC
:107F80000AD08FE07ACF813511F488E018D01DD067
:107F900080E101D065CF982F8091C00085FFFCCF94
:107FA0009093C60008958091C00087FFFCCF809118
:107FB000C00084FD01C0A8958091C6000895E0E648
:107FC000F0E098E1908380830895EDDF803219F02E
:107FD00088E0F5DFFFCF84E1DECF1F93182FE3DFCA
:107FE0001150E9F7F2DF1F91089580E0E8DFEE27F6
:047FF000FF270994CA
:027FFE00040479
:00000001FF
